S01A000047726164756174696F6E5F50726F6A6563742E73726563C6
S11300000C942A000C9458020C9447000C9447005A
S11300100C94250C0C94D10B0C9447000C944700C1
S11300200C9447000C9447000C94610B0C941E0B29
S11300300C9447000C94A70C0C9447000C940318E0
S11300400C946F000C9447000C9447000C944700E8
S11300500C94470011241FBECFE5D8E0DEBFCDBF0E
S113006017E0A0E6B0E0E0E2F5E302C005900D92EF
S1130070AE32B107D9F727E0AEE2B7E001C01D9276
S1130080A635B207E1F70E94170A0C948E1A0C9455
S1130090000087B18F73806487B987B18F7D87B97A
S11300A086B1806286B980B78F7180BF86B1876060
S11300B086B98FB780688FBF86B1877F86B986B1CE
S11300C0806886B9089597B1907E892B87B986B1E7
S11300D0806486B9349BFECF84B195B108951F9294
S11300E00F920FB60F9211240F900FBE0F901F9016
S11300F0189540E067E082E00E944601089541E0DF
S113010067E082E00E944601089567E082E00E9471
S1130110E501089541E060E081E00E94D50041E0FE
S113012061E081E00E94D50041E060E081E00E944E
S1130130460141E061E081E00E9446010E94190B02
S11301400895CF92DF92EF92FF926B017C014423DA
S113015019F0413061F015C040E060E081E00E9498
S1130160460141E061E081E00E9446010AC041E0AD
S113017060E081E00E94460140E061E081E00E948D
S11301804601C701B6010E94DF0AFF90EF90DF909D
S1130190CF90089541E060E081E00E94460141E093
S11301A061E081E00E9446010895442319F0413042
S11301B0C9F10895813091F028F08230D9F083306C
S11301C029F108952AB381E090E002C0880F991FB5
S11301D06A95E2F7809582238ABB089527B381E06C
S11301E090E002C0880F991F6A95E2F780958223F8
S11301F087BB089524B381E090E002C0880F991F63
S11302006A95E2F78095822384BB089521B381E047
S113021090E002C0880F991F6A95E2F780958223C7
S113022081BB0895813089F028F08230C9F0833091
S113023011F108952AB381E090E002C0880F991F5C
S11302406A95E2F7822B8ABB089527B381E090E098
S113025002C0880F991F6A95E2F7822B87BB089525
S113026024B381E090E002C0880F991F6A95E2F7F9
S1130270822B84BB089521B381E090E002C0880FF3
S1130280991F6A95E2F7822B81BB08954423D9F123
S1130290413009F06BC0813091F028F08230D9F000
S11302A0833029F108952BB381E090E002C0880FD8
S11302B0991F6A95E2F7809582238BBB089528B332
S11302C081E090E002C0880F991F6A95E2F780955B
S11302D0822388BB089525B381E090E002C0880F93
S11302E0991F6A95E2F78095822385BB089522B30E
S11302F081E090E002C0880F991F6A95E2F780952B
S1130300822382BB0895813089F028F08230C9F0BD
S1130310833011F108952BB381E090E002C0880F7F
S1130320991F6A95E2F7822B8BBB089528B381E06D
S113033090E002C0880F991F6A95E2F7822B88BB70
S1130340089525B381E090E002C0880F991F6A9553
S1130350E2F7822B85BB089522B381E090E002C0CE
S1130360880F991F6A95E2F7822B82BB089581302A
S113037079F028F08230A9F08330E1F024C089B309
S113038090E002C0959587956A95E2F7817008958B
S113039086B390E002C0959587956A95E2F78170DF
S11303A0089583B390E002C0959587956A95E2F726
S11303B08170089580B390E002C0959587956A9501
S11303C0E2F78170089580E00895813089F028F083
S11303D08230C9F0833011F108952BB381E090E0AD
S11303E002C0880F991F6A95E2F782278BBB089594
S11303F028B381E090E002C0880F991F6A95E2F764
S1130400822788BB089525B381E090E002C0880F5D
S1130410991F6A95E2F7822785BB089522B381E08C
S113042090E002C0880F991F6A95E2F7822782BB89
S113043008951F93CF93DF93162FD42F883008F09D
S113044087E0C82FC0650E94BC078C2F0E94C80794
S1130450812F0E94E4078D2F0E94E4070E94F20777
S11304608FE39CE90197F1F700C00000DF91CF9181
S11304701F910895CF93DF93D62F883008F087E03B
S1130480C82FC0650E94BC078C2F0E94C8078D2FFF
S11304900E94E4070E94C2078C2F0E94D9070E9481
S11304A0EB07C82F0E94F2078C2FDF91CF9108959C
S11304B01F920F920FB60F9211242F923F924F92D8
S11304C05F927F928F929F92AF92BF92CF92DF9270
S11304D0EF92FF920F931F932F933F934F935F934A
S11304E06F937F938F939F93AF93BF93EF93FF93F8
S11304F0CF93DF93CDB7DEB72897DEBFCDBF809112
S11305002F0790913007892B09F0D2C10E94A009CE
S11305108DE092E00E94900C81E790E00E94900CA4
S113052061E670E080E090E00E94BA0A712C00E07D
S1130530AAC187E890E00E941A0910E015C00E9441
S1130540F80780932E070CC0E1E0F0E0EC0FFD1FEC
S1130550E10FF11D80830E94D90810922E071F5FBE
S113056080912E078111F0CF143048F360E081E0D0
S11305700E94A40982E990E00E941A0910E016C0C2
S11305800E94F80780932E070DC0E5E0F0E0EC0F21
S1130590FD1FE10FF11D80838AE20E94D9081092A9
S11305A02E071F5F80912E078111EFCF143040F387
S11305B00E94A0098CE990E00E941A0960E081E0A1
S11305C00E94A4098CEA90E00E941A0904C00E94C7
S11305D0F80780932E0780912E078A3211F0833218
S11305E0B1F78A32E9F40E94A00982E990E00E94FE
S11305F01A0910E00AC0E5E0F0E0EC0FFD1FE10F7E
S1130600F11D80810E94D9081F5F1430A0F32FEFE1
S113061089E698E1215080409040E1F700C0000055
S11306200E94A00910E004C1A980B12CE12EF12C94
S113063067012FEFC21AD20AB60180E090E00E944F
S11306403A02A816B90609F0F2C0AA80B12C4701F3
S113065082E0880E911CB40180E090E00E943A028E
S1130660A816B90609F0E3C0AB80B12C170193E0DA
S1130670290E311CB10180E090E00E943A02A816D4
S1130680B90609F0D4C04C80512C570124E0A20EC5
S1130690B11CB50180E090E00E943A024816590668
S11306A009F0C5C0ED80F12CB60181E090E00E9414
S11306B03A02E816F90609F0BAC0EE80F12CB4014A
S11306C081E090E00E943A02E816F90609F0AFC012
S11306D0EF80F12CB10181E090E00E943A02E8162B
S11306E0F90609F0A4C0E884F12CB50181E090E09A
S11306F00E943A02E816F90609F099C0809154075D
S1130700882311F0823029F581E090E0909330073E
S113071080932F078AEB90E00E941A0960E081E041
S11307200E94A40988EC90E00E941A0910915107D4
S11307301F5F8FEF99E628E1815090402040E1F758
S113074000C000000E94A0096894772472F804E0B5
S11307506EC0813009F067C00E94A00981ED90E06D
S11307600E941A098FEF99E628E1815090402040B9
S1130770E1F700C000000E94A0098DE092E00E9411
S1130780900C8EED90E00E94900C8CE091E00E9421
S1130790900C8DE092E00E94900C8DE092E00E941B
S11307A0900C5F9BFECF8CB1809355078DE092E057
S11307B00E94900C80915507813399F481E090E078
S11307C09093300780932F078AEB90E00E941A09D8
S11307D060E081E00E94A40988EC90E00E941A097C
S11307E00CC0823351F41092300710922F070E94EC
S11307F0A0098AE391E00E941A09109151071F5F32
S11308008FEF99E628E1815090402040E1F700C045
S113081000000E94A00988E080935507689477241B
S113082072F804E004C06894772472F804E01C5F52
S113083080915107811708F0F7CE0430B9F087E4AE
S113084091E00E941A0960E081E00E94A40987E512
S113085091E00E941A098FEF99E628E181509040B7
S11308602040E1F700C000000E94A0090F5F0330A0
S113087049F40E94A00981E691E00E941A090E94AD
S11308808604FDCF739482E0871508F052CE8FE67C
S113089091E00E94900C80E891E00E94900C8DE021
S11308A092E00E94900C8DE092E00E94900C06C0B1
S11308B01092300710922F070E94A00928960FB6B5
S11308C0F894DEBF0FBECDBFDF91CF91FF91EF91C2
S11308D0BF91AF919F918F917F916F915F914F9154
S11308E03F912F911F910F91FF90EF90DF90CF9048
S11308F0BF90AF909F908F907F905F904F903F906C
S11309002F900F900FBE0F901F9018950E947900A2
S11309100E94F5090E94060A0E94C2092FEF8DEE7B
S113092092E0215080409040E1F700C000000E9416
S1130930C8092FEF8DEE92E0215080409040E1F7FE
S113094000C000000E94F5090E94C2092FEF8DEE3D
S113095092E0215080409040E1F700C000000E94E6
S1130960C8092FEF8DEE92E0215080409040E1F7CE
S113097000C000000E94E4092FEF8DEE92E02150A8
S113098080409040E1F700C000000E94EA092FEF88
S11309908DEE92E0215080409040E1F700C00000CD
S11309A00E94E4092FEF8DEE92E0215080409040A8
S11309B0E1F700C000000E94EA092FEF8DEE92E0FB
S11309C0215080409040E1F700C000000E94C2091D
S11309D00E94E4092FEF8DEE92E021508040904078
S11309E0E1F700C000000E94C8090E94EA092FEF45
S11309F08DEE92E0215080409040E1F700C000006D
S1130A000E94C8090E94EA092FEF8DEE92E021505E
S1130A1080409040E1F700C000000E94C2090E949B
S1130A20E4092FEF8DEE92E0215080409040E1F7F1
S1130A3000C000000E94C8090E94EA092FEF8DEE51
S1130A4092E0215080409040E1F700C000000E94F5
S1130A50C2092FEF8DEE92E0215080409040E1F7E3
S1130A6000C000000E94C8090E94E4092FEF8DEE27
S1130A7092E0215080409040E1F700C000000E94C5
S1130A80EA092FEF8DEE92E0215080409040E1F78B
S1130A9000C000000E94C2092FEF8DEE92E02150A9
S1130AA080409040E1F700C000000E94C8090E9405
S1130AB0E4092FEF8DEE92E0215080409040E1F761
S1130AC000C000000E94EA092FEF8DEE92E0215051
S1130AD080409040E1F700C000000E94C2092FEF5F
S1130AE08DEE92E0215080409040E1F700C000007C
S1130AF00E94C8090E94E4092FEF8DEE92E0215074
S1130B0080409040E1F700C000000E94EA092FEF06
S1130B108DEE92E0215080409040E1F700C000004B
S1130B200E947F000E94C2092FEF8DEE92E02150B7
S1130B3080409040E1F700C000000E94C8090E9474
S1130B40E4092FEF8DEE92E0215080409040E1F7D0
S1130B5000C000000E94EA092FEF8DEE92E02150C0
S1130B6080409040E1F700C000000E94C2092FEFCE
S1130B708DEE92E0215080409040E1F700C00000EB
S1130B800E94C8092FEF8DEE92E0215080409040E2
S1130B90E1F700C000000E94E4092FEF8DEE92E01F
S1130BA0215080409040E1F700C000000E94EA0913
S1130BB02FEF8DEE92E0215080409040E1F700C08D
S1130BC000000E94E4092FEF8DEE92E02150804056
S1130BD09040E1F700C000000E94EA092FEF8DEE7B
S1130BE092E0215080409040E1F700C000000E9454
S1130BF0C2090E94E4092FEF8DEE92E0215080405B
S1130C009040E1F700C000000E94C8090E94EA0970
S1130C102FEF8DEE92E0215080409040E1F700C02C
S1130C2000000E94C2090E94E4092FEF8DEE92E0B9
S1130C30215080409040E1F700C000000E94C809A4
S1130C400E94EA092FEF8DEE92E0215080409040FF
S1130C50E1F700C000000E94C2092FEF8DEE92E080
S1130C60215080409040E1F700C000000E94C80974
S1130C700E94E4092FEF8DEE92E0215080409040D5
S1130C80E1F700C000000E94EA092FEF8DEE92E028
S1130C90215080409040E1F700C000000E94C2094A
S1130CA02FEF8DEE92E0215080409040E1F700C09C
S1130CB000000E94C8090E94E4092FEF8DEE92E023
S1130CC0215080409040E1F700C000000E94EA09F2
S1130CD02FEF8DEE92E0215080409040E1F700C06C
S1130CE000000E94CE090E9485002FEF8DEE92E055
S1130CF0215080409040E1F700C000000E94CE09DE
S1130D000E9485002FEF83EC99E0215080409040B1
S1130D10E1F700C000000E94CE090E9485002FEF79
S1130D2089E698E1215080409040E1F700C000003E
S1130D300E94CE090E9485002FEF81EE94E021509D
S1130D4080409040E1F700C000000E94CE090E945C
S1130D5085002FEF8DEE92E0215080409040E1F726
S1130D6000C000000E94CE090E9485002FEF8DEE86
S1130D7092E0215080409040E1F700C000000E94C2
S1130D80CE090E9485008FE39CE90197F1F700C02A
S1130D9000000E94CE090E9485009FEF2DEE82E0A4
S1130DA0915020408040E1F700C000000E94CE092D
S1130DB00E9485009FEF2DEE82E0915020408040FC
S1130DC0E1F700C000000E94CE090E9485009FEF59
S1130DD02DEE82E0915020408040E1F700C00000F9
S1130DE00E94F0090E94010A0E94CE090E94DF09B4
S1130DF00E94120A0E9485009FEF23EC89E0915023
S1130E0020408040E1F700C000000E94CE090E940B
S1130E10F0090E94010A0E94DF090E94120A0E943E
S1130E2085009FEF2DEE82E0915020408040E1F755
S1130E3000C000000E94F0090E94010A0E94CE092D
S1130E400E94DF090E94120A0E9485009FEF21EE92
S1130E5084E0915020408040E1F700C000000E94EF
S1130E60F0090E94010A0E94CE090E94DF090E9433
S1130E70120A0E9485009FEF2DEE82E091502040DF
S1130E808040E1F700C000000E94F0090E94010ABE
S1130E900E94CE090E94DF090E94120A0E94850066
S1130EA09FEF23ED80E3915020408040E1F700C0A4
S1130EB000000E94F0090E94010A0E94CE090E94CB
S1130EC0DF090E94120A0E9485008FE39CE90197C2
S1130ED0F1F700C000000E94F0090E94010A0E947C
S1130EE0CE090E94DF090E94120A0E9485008FE346
S1130EF09CE90197F1F700C000000E94F0090E94EC
S1130F00010A0E94CE090E94DF090E94120A0E946F
S1130F1085009FEF21EE84E0915020408040E1F76E
S1130F2000C000000E94CE090E9479009FEF24E3D4
S1130F308CE0915020408040E1F700C000000E9406
S1130F40CE090E9485009FEF24E38CE0915020405D
S1130F508040E1F700C000000E94CE090E947900A1
S1130F609FEF2DEE82E0915020408040E1F700C0D9
S1130F7000000E947F00089584EA86BF06B607FE3B
S1130F80FDCF089584EA86BF06B607FEFDCF089517
S1130F90880F83B984E886BF06B607FEFDCF2FEF1E
S1130FA081EE94E0215080409040E1F700C00000C1
S1130FB0089590E0880F991F816083B984E886BF03
S1130FC006B607FEFDCF089583B984E886BF06B64A
S1130FD007FEFDCF089584E886BF06B607FEFDCF61
S1130FE083B1089584E986BF86B7806886BF089573
S1130FF01F93CF93DF93D0E010E028C041E06D2F22
S113100080E00E944601C3E019C06C2F80E00E947A
S1131010B701811112C0EC2FF0E03397EE0FFF1FE0
S1131020EE0FFF1FE05AFF4FED0FF11D10816C2FE3
S113103080E00E94B7018823D1F3CF5FC73028F343
S113104040E06D2F80E00E944601DF5FD330B0F2B4
S1131050812FDF91CF911F910895CF93C82F41E045
S113106060E083E00E94460141E061E083E00E9489
S1131070460141E062E083E00E94460185B39C2F73
S1131080907F8F70892B85BB40E062E083E00E94F3
S113109046018FE99FE00197F1F700C0000041E0AD
S11310A062E083E00E94460120E1C29FC001112456
S11310B095B39F70892B85BB40E062E083E00E947A
S11310C046018FE99FE00197F1F700C0000041E07D
S11310D062E083E00E9446018FE19EE40197F1F70C
S11310E000C00000CF91089541E060E083E00E94D9
S11310F0D50041E061E083E00E94D50041E062E078
S113110083E00E94D50041E064E082E00E94D500C3
S113111041E065E082E00E94D50041E066E082E0C3
S11311200E94D50041E067E082E00E94D50041E0E2
S113113060E083E00E94460141E061E083E00E94B8
S1131140460141E062E083E00E94460141E064E040
S113115082E00E94460141E065E082E00E9446018F
S113116041E066E082E00E94460141E067E082E0FF
S11311700E9446012FEF81EE94E021508040904080
S1131180E1F700C0000083E30E942D0882E30E947F
S11311902D0888E20E942D0881E00E942D0882E03B
S11311A00E942D0886E00E942D088CE00E942D08E4
S11311B00895CF93C82F40E060E083E00E94460189
S11311C041E061E083E00E94460141E062E083E0A7
S11311D00E94460185B39C2F907F8F70892B85BB1D
S11311E040E062E083E00E9446018FE99FE00197BE
S11311F0F1F700C0000041E062E083E00E94460194
S113120020E1C29FC001112495B39F70892B85BB37
S113121040E062E083E00E9446018FE99FE001978D
S1131220F1F700C0000041E062E083E00E94460163
S1131230CF9108950F931F93CF938C01C0E003C007
S11312400E94D908CF5FF801EC0FF11D8081811154
S1131250F7CFCF911F910F9108958F929F92AF92E4
S1131260BF92EF92FF920F931F93CF93DF934B01A3
S11312705C01672B682B692B19F480E30E94D90861
S113128001E010E0E12CF12C2FC0C701880F991F59
S1131290B701660F771F660F771F660F771F7C01F4
S11312A0E60EF71EC501B4012AE030E040E050E04C
S11312B00E94581AE60EF71EE114F10459F4C8010D
S11312C0880F991F000F111F000F111F000F111F0E
S11312D0080F191FC501B4012AE030E040E050E0D6
S11312E00E94581A49015A0181149104A104B104BD
S11312F061F6A12CB12C16C0C7016AE070E00E940F
S1131300441AD62FC72F805D0E94D908ED2EFC2EDB
S1131310E114F10439F40A30110524F07801AA2407
S1131320A394B12CEA14FB0439F7DF91CF911F91F8
S11313300F91FF90EF90BF90AF909F908F90089582
S113134081E00E942D080895CF93DF9300D0CDB79C
S1131350DEB790E8998390EC9A83823008F080E0BD
S1131360683208F060E0E1E0F0E0EC0FFD1FE80F08
S1131370F11D8081860F0E942D080F900F90DF9140
S1131380CF91089540E062E082E00E944601089512
S113139041E062E082E00E944601089562E082E05A
S11313A00E94E501089540E063E082E00E94460166
S11313B0089541E063E082E00E944601089563E0FD
S11313C082E00E94E501089540E064E082E00E942A
S11313D04601089541E064E082E00E9446010895D8
S11313E064E082E00E94E501089540E065E082E067
S11313F00E944601089541E065E082E00E944601B2
S1131400089565E082E00E94E501089540E066E009
S113141082E00E944601089541E066E082E00E9475
S11314204601089566E082E00E94E50108950E9465
S1131430C90A0E948A000E9449000E94740861E05F
S113144082E00E94A40986EA91E00E941A0961E000
S113145081E00E94A40981EB91E00E941A0984E0D2
S11314600E946300BC0180E090E00E94201921E703
S11314703DE34AEF5EE30E94D7190E94F11870938E
S11314803207609331076AE082E00E94A409609108
S113149031077091320780E090E00E942D0980911D
S11314A03107909132074E9750F40E94CA0065E0CC
S11314B081E00E94A40987EB91E00E941A098091BF
S11314C03107909132074E974E9778F465E081E0AA
S11314D00E94A4098BEB91E00E941A0940E060E0AD
S11314E070E088EC91E40E94A10080913107909112
S11314F03207CC974E9778F465E081E00E94A40906
S11315008BEB91E00E941A0940E060E070E088E40F
S113151092E40E94A10080913107909132078A558C
S113152091094E9778F465E081E00E94A4098BEB61
S113153091E00E941A0940E060E070E086E992E4DC
S11315400E94A1008091310790913207883791055C
S113155008F485CF65E081E00E94A4098BEB91E05B
S11315600E941A0940E060E070E088EC92E40E9476
S1131570A10075CF1DBC1CBC27E833E137BD26BDD7
S11315807BBD6ABD8FB5826A8FBD8EB58B618EBD02
S113159008958FB780688FBF83B7877F83BF83B772
S11315A0806483BF83B78F7C806283BF89B7816087
S11315B089BF41E063E081E00E94D5000895CF92A5
S11315C0DF92EF92FF926B017C0120E030E0A901F1
S11315D00E947A1888235CF020E030E048EC52E462
S11315E0C701B6010E94D21918162CF00CC0C12CE8
S11315F0D12C760108C00F2EC12CD12CF8ECEF2E83
S1131600F2E4FF2EF02D20E030E04FE753E4C70171
S1131610B6010E94D71920E030E048EC52E40E9461
S11316207F180E94F1186CBFFF90EF90DF90CF906D
S1131630089583B7887F856083BF08951F920F92B2
S11316400FB60F9211244F935F936F937F938F93F1
S11316509F93AF93BF9380913F0790914007A091D0
S11316604107B09142070196A11DB11D80933F0728
S113167090934007A0934107B093420740914707D6
S11316805091480760E070E084179507A607B707F4
S113169059F410923F07109240071092410710929C
S11316A042078091460782BFBF91AF919F918F916E
S11316B07F916F915F914F910F900FBE0F901F908C
S11316C018951F920F920FB60F9211244F935F93A8
S11316D06F937F938F939F93AF93BF9380913B07B7
S11316E090913C07A0913D07B0913E070196A11D42
S11316F0B11D80933B0790933C07A0933D07B093A3
S11317003E0781309105A105B105B9F44091470721
S11317105091480760E070E084179507A607B70763
S113172061F410923B0710923C0710923D0710920F
S11317303E07809146078CBF1EC081309105A105EC
S1131740B10519F48FEF8CBF16C040914707509133
S1131750480760E070E084179507A607B70759F4B7
S113176010923B0710923C0710923D0710923E07DF
S1131770809146078CBFBF91AF919F918F917F91CC
S11317806F915F914F910F900FBE0F901F9018951E
S1131790089585B5876085BD089585B5887F85BD25
S11317A008951F920F920FB60F9211242F933F9317
S11317B04F935F936F937F938F939F93AF93BF9355
S11317C0EF93FF938091370790913807A0913907E1
S11317D0B0913A070196A11DB11D809337079093EC
S11317E03807A0933907B0933A07409144075091C2
S11317F0450760E070E084179507A607B707A1F4D2
S113180080912F07811103C00E94A00902C00E9489
S1131810CD0B1092370710923807109239071092A7
S11318203A078091430784BDFF91EF91BF91AF9137
S11318309F918F917F916F915F914F913F912F91E4
S11318400F900FBE0F901F9018951F920F920FB616
S11318500F9211244F935F936F937F938F939F9372
S1131860AF93BF938091330790913407A0913507CC
S1131870B09136070196A11DB11D80933307909353
S11318803407A0933507B093360781309105A1053D
S1131890B105B9F4409144075091450760E070E008
S11318A084179507A607B70761F4109233071092BF
S11318B0340710923507109236078091430783BD91
S11318C01EC081309105A105B10519F48FEF83BDC8
S11318D016C0409144075091450760E070E08417BA
S11318E09507A607B70759F41092330710923407E7
S11318F010923507109236078091430783BDBF913C
S1131900AF919F918F917F916F915F914F910F90C4
S11319100FBE0F901F9018958CB95D9BFECF089554
S11319200F931F93CF938C01C0E003C00E948C0CD3
S1131930CF5FF801EC0FF11D80818A30B9F7CF91A8
S11319401F910F9108955D9BFECF8CB108951F9256
S11319500F920FB60F9211244F925F926F927F9263
S11319608F929F92AF92BF92CF92DF92EF92FF92AB
S11319700F931F932F933F934F935F936F937F9393
S11319808F939F93AF93BF93EF93FF93CF93DF9383
S1131990CDB7DEB72A97DEBFCDBF19821A821B826C
S11319A01C821D821E821F82188680912F0781113E
S11319B002C00E94C90B80915407811107C25F9B2A
S11319C0FECF8CB180935307912CFCC180915307B7
S11319D0813309F0E2C08DE092E00E94900C8DE02A
S11319E092E00E94900C8EEB91E00E94900C8DE0AE
S11319F092E00E94900C10E00EC05F9BFECFE12E9F
S1131A00F12C0E94A30CE1E0F0E0EC0FFD1FEE0DC1
S1131A10FF1D80831F5F143080F38DE092E00E94ED
S1131A20900C8DE092E00E94900C8BED91E00E946E
S1131A30900C8DE092E00E94900C10E00EC05F9B31
S1131A40FECFE12EF12C0E94A30CE5E0F0E0EC0FB8
S1131A50FD1FEE0DFF1D80831F5F143080F3812C6A
S1131A6082C0C980D12C082D10E078018FEFE81ACC
S1131A70F80AB70185E090E00E943A02C816D90638
S1131A8009F06FC0CA80D12C380182E0680E711C45
S1131A90B30185E090E00E943A02C816D90609F025
S1131AA060C0AB80B12C680183E0C80ED11CB601C4
S1131AB085E090E00E943A02A816B90609F051C0E8
S1131AC0AC80B12C0C5F1F4FB80185E090E00E9400
S1131AD03A02A816B90609F044C0AD80B12CB7018A
S1131AE086E090E00E943A02A816B906D1F5EE808D
S1131AF0F12CB30186E090E00E943A02E816F90660
S1131B0081F5EF80F12CB60186E090E00E943A0264
S1131B10E816F90631F5E884F12CB80186E090E086
S1131B200E943A02E816F906E1F48DE092E00E9480
S1131B30900C8DE092E00E94900C88EF91E00E945E
S1131B40900C8DE092E00E94900C80907000839441
S1131B5081E080935407809352070F2EF5E09F2E67
S1131B60F02D84E0880E80917000881508F079CFFC
S1131B7080915407811119C18DE092E00E94900C6C
S1131B808DE092E00E94900C80E192E00E94900C23
S1131B908DE092E00E94900C08C1823309F0DFC00E
S1131BA08DE092E00E94900C8EEB91E00E94900CEC
S1131BB08DE092E00E94900C10E00EC05F9BFECF7F
S1131BC0E12EF12C0E94A30CE1E0F0E0EC0FFD1FEC
S1131BD0EE0DFF1D80831F5F143080F38DE092E0D3
S1131BE00E94900C8DE092E00E94900C8BED91E0AD
S1131BF00E94900C8DE092E00E94900C10E00EC0C8
S1131C005F9BFECFE12EF12C0E94A30CE5E0F0E0F7
S1131C10EC0FFD1FEE0DFF1D80831F5F143080F35A
S1131C20B12C83C0C980D12C0B2D10E078018FEF2B
S1131C30E81AF80AB70182E090E00E943A02C81656
S1131C40D90609F070C0CA80D12C280182E0480E60
S1131C50511CB20182E090E00E943A02C816D906F3
S1131C6009F061C0CB80D12C380183E0680E711C6F
S1131C70B30182E090E00E943A02C816D90609F046
S1131C8052C0CC80D12C0C5F1F4FB80182E090E091
S1131C900E943A02C816D90609F045C0CD80D12C5D
S1131CA0B70183E090E00E943A02C816D906D9F53C
S1131CB0EE80F12CB20183E090E00E943A02E81633
S1131CC0F90689F5EF80F12CB30183E090E00E94DE
S1131CD03A02E816F90639F5E884F12CB80183E0F4
S1131CE090E00E943A02E816F906E9F48DE092E0E9
S1131CF00E94900C8DE092E00E94900C89E392E0A7
S1131D000E94900C8DE092E00E94900CB0905007DD
S1131D10B39482E08093540781E0809352070F2E9E
S1131D20F5E09F2EF02D84E0B80E809150078B15BE
S1131D3008F078CF80915407811137C08DE092E08C
S1131D400E94900C8DE092E00E94900C80E592E05D
S1131D500E94900C8DE092E00E94900C26C08DE0D1
S1131D6092E00E94900C8DE092E00E94900C88E733
S1131D7092E00E94900C8DE092E00E94900C8DE025
S1131D8092E00E94900C86E992E00E94900C86EA10
S1131D9092E00E94900C8DE092E00E94900C9A9444
S1131DA05F9BFECF8CB18093530782E0981209C0E9
S1131DB00E94A00981E691E00E941A090E9486040B
S1131DC0FDCF939482E0891508F000CE80915407EA
S1131DD0813009F03DC680915207811104C08CB155
S1131DE08093550705C088E08093550710925207E9
S1131DF0809155078133B9F46CE371E080E090E0A1
S1131E000E94BA0A80912F078111B3C50E94A009CC
S1131E1085EB92E00E941A0960ED77E080E090E0A3
S1131E200E94C80BA6C58233B9F461E670E080E075
S1131E3090E00E94BA0A80912F0781119AC50E94EE
S1131E40A00982EC92E00E941A0960ED77E080E03C
S1131E5090E00E94C80B8DC5833309F08EC08DE0DD
S1131E6092E00E94900C8DE092E00E94900C8FEC26
S1131E7092E00E94900C82E093E00E94900C8DE02E
S1131E8092E00E94900C5F9BFECF0E94A30C809373
S1131E905507813369F40E94C20980912F0781118B
S1131EA061C00E94A00980E193E00E941A095AC00F
S1131EB0823369F40E94D30980912F07811152C0A3
S1131EC00E94A0098FE193E00E941A094BC083335A
S1131ED069F40E94E40980912F07811143C00E9494
S1131EE0A0098EE293E00E941A093CC0843369F48D
S1131EF00E94F50980912F07811134C00E94A00926
S1131F008DE393E00E941A092DC0853369F40E9481
S1131F10060A80912F07811125C00E94A0098CE434
S1131F2093E00E941A091EC08633E1F40E94C2099C
S1131F300E94D3090E94E4090E94F5090E94060A3E
S1131F4080912F0781110EC00E94A0098BE593E0B8
S1131F500E941A0960E081E00E94A40988E193E0EC
S1131F600E941A0980912F07811103C560ED77E063
S1131F7080E090E00E94C80BFCC4843309F08EC05A
S1131F808DE092E00E94900C8DE092E00E94900C13
S1131F9089E693E00E94900C82E093E00E94900C0A
S1131FA08DE092E00E94900C5F9BFECF0E94A30CF8
S1131FB080935507813369F40E94C80980912F07E3
S1131FC0811161C00E94A0098CE993E00E941A0962
S1131FD05AC0823369F40E94D90980912F07811174
S1131FE052C00E94A0098BEA93E00E941A094BC0D8
S1131FF0833369F40E94EA0980912F07811143C059
S11320000E94A0098AEB93E00E941A093CC0843321
S113201069F40E94FB0980912F07811134C00E944A
S1132020A00989EC93E00E941A092DC0853369F454
S11320300E940C0A80912F07811125C00E94A009DB
S113204088ED93E00E941A091EC08633E1F40E94D1
S1132050C8090E94D9090E94EA090E94FB090E944A
S11320600C0A0E94A00980912F0781110CC08BE5F6
S113207093E00E941A0960E081E00E94A40984EAC6
S113208093E00E941A0980912F07811172C460EDB8
S113209077E080E090E00E94C80B6BC4853309F0C0
S11320A0CFC08DE092E00E94900C8DE092E00E94FF
S11320B0900C87EE93E00E94900C8DE092E00E94D9
S11320C0900C1092490710924A0710924B071092F5
S11320D04C0700E038C05F9BFECFE02EF12C0E943D
S11320E0A30C182FF701E35BF84F808380ED810F79
S11320F08A3038F520E030E040E251E4609149074D
S113210070914A0780914B0790914C070E94D71910
S11321106B017C01612F70E060537109072E000C84
S1132120880B990B0E942219A70196010E940E1890
S11321306093490770934A0780934B0790934C0729
S113214001C005E00F5F033030F280912F07811149
S113215023C00E94A00981E194E00E941A0960E072
S113216081E00E94A4098AE194E00E941A09609126
S1132170490770914A0780914B0790914C070E9440
S1132180F1180E942D0985E20E94D90860ED77E0DC
S113219080E090E00E94C80BC0904907D0904A07A5
S11321A0E0904B07F0904C0720E030E048E652E422
S11321B0C701B6010E94D2198823BCF020E030E0A8
S11321C040E752E4C701B6010E947A1818166CF071
S11321D080E090E0ACE5B2E48093490790934A072D
S11321E0A0934B07B0934C0720C020E030E040E7B9
S11321F052E4C701B6010E94D2191816B4F420E0C3
S113220030E048E752E4C701B6010E947A18181674
S113221064F080E090E0A2E8B2E4809349079093F0
S11322204A07A0934B07B0934C07609149077091FC
S11322304A0780914B0790914C070E94DF0A99C38B
S1132240863309F050C01A8619869091310720E030
S113225017C0E9E0F0E0EC0FFD1FE20FF11D8DEC7B
S1132260989F812D1124869586958695482F440F35
S1132270342F330F330F340F931B9083982F2F5F1A
S1132280223038F38DE092E00E94900C8DE092E0D1
S11322900E94900C86E294E00E94900C8A85805DF6
S11322A00E948C0C8985805D0E948C0C8DE092E0EC
S11322B00E94900C80912F0781115BC30E94A0099A
S11322C085E394E00E941A09609131077091320706
S11322D080E090E00E942D0960ED77E080E090E0DE
S11322E00E94C80B46C3873309F010C18DE092E009
S11322F00E94900C8DE092E00E94900C82E494E0A5
S11323000E94900C82E594E00E94900C8EE594E08B
S11323100E94900C5F9BFECF0E94A30C80935507F4
S1132320813309F04BC08DE092E00E94900C8DE067
S113233092E00E94900C8AE694E00E94900C10E0D7
S11323400FC01F5F5F9BFECF0E94A30C60915107DB
S1132350610F482F50E070E080E090E00E94190285
S1132360143078F38DE092E00E94900C8DE092E0BE
S11323700E94900C8FE894E00E94900C10E00FC033
S11323801F5F5F9BFECF0E94A30C60915107610FFA
S1132390482F50E070E081E090E00E941902143070
S11323A078F3409151074C5F4093510750E060E04F
S11323B070E084E090E00E9419029BC0823309F02F
S11323C04BC08DE092E00E94900C8DE092E00E9460
S11323D0900C8AE694E00E94900C10E00FC01F5FFE
S11323E05F9BFECF0E94A30C60915007610F482FA2
S11323F050E070E082E090E00E941902143078F31B
S11324008DE092E00E94900C8DE092E00E94900C8E
S11324108FE894E00E94900C10E00FC01F5F5F9B58
S1132420FECF0E94A30C60915007610F482F50E02B
S113243070E083E090E00E941902143078F3409138
S113244050074C5F4093500750E061E070E084E037
S113245090E00E9419024DC0833309F04AC08DE018
S113246092E00E94900C8DE092E00E94900C8AE62B
S113247094E00E94900C10E00FC01F5F5F9BFECFA2
S11324800E94A30C60917000610F482F50E070E02F
S113249085E090E00E941902143078F38DE092E018
S11324A00E94900C8DE092E00E94900C8FE894E0E2
S11324B00E94900C10E00FC01F5F5F9BFECF0E9434
S11324C0A30C60917000610F482F50E070E086E02B
S11324D090E00E941902143078F3409170004C5F30
S11324E04093700050E062E070E084E090E00E946D
S11324F019028DE092E00E94900C8DE092E00E941F
S1132500900C84EB94E00E94900C33C2883309F061
S113251011C28DE092E00E94900C8DE092E00E9446
S1132520900C8EEC94E00E94900C8AE095E00E945E
S1132530900C8AE195E00E94900C86E295E00E945E
S1132540900C5F9BFECF0E94A30C809355078133B0
S113255009F09BC08DE092E00E94900C8DE092E027
S11325600E94900C82E395E00E94900C10E00EC053
S11325705F9BFECFE12EF12C0E94A30CE1E0F0E082
S1132580EC0FFD1FEE0DFF1D80831F5F143080F3E1
S113259010E0F12C74C0A980B12CC12ED12CB6014D
S11325A06F5F7F4F80E090E00E943A02A816B90660
S11325B009F064C0AA80B12CB6016E5F7F4F80E041
S11325C090E00E943A02A816B90609F057C0AB8001
S11325D0B12CB6016D5F7F4F80E090E00E943A021B
S11325E0A816B90609F04AC0AC80B12CB6016C5FDC
S11325F07F4F80E090E00E943A02A816B906F1F5F8
S11326001F5F1DC0E12EF12C670184E0C80ED11CB0
S1132610B60180E090E00E943A02AC01B70180E08C
S113262090E00E941902B60181E090E00E943A0213
S1132630AC01B70181E090E00E9419021F5F409154
S113264051074117F8F644504093510750E060E0B9
S113265070E084E090E00E941902109151071F5F1E
S11326608DE092E00E94900C8DE092E00E94900C2C
S113267081E595E00E94900CFF24F3941C5F809107
S11326805107811708F087CF46C1823309F09BC0F8
S11326908DE092E00E94900C8DE092E00E94900CFC
S11326A08DE695E00E94900C10E00EC05F9BFECF7B
S11326B0E12EF12C0E94A30CE1E0F0E0EC0FFD1FF1
S11326C0EE0DFF1D80831F5F143080F310E0F12CAA
S11326D074C0A980B12CC12ED12CB6016F5F7F4F7D
S11326E082E090E00E943A02A816B90609F064C09C
S11326F0AA80B12CB6016E5F7F4F82E090E00E9409
S11327003A02A816B90609F057C0AB80B12CB6013D
S11327106D5F7F4F82E090E00E943A02A816B906EE
S113272009F04AC0AC80B12CB6016C5F7F4F82E0E7
S113273090E00E943A02A816B906F1F51F5F1DC089
S1132740E12EF12C670184E0C80ED11CB60182E0B1
S113275090E00E943A02AC01B70182E090E00E944E
S11327601902B60183E090E00E943A02AC01B7017D
S113277083E090E00E9419021F5F409150074117C7
S1132780F8F644504093500750E061E070E084E074
S113279090E00E941902109150071F5F8DE092E0B3
S11327A00E94900C8DE092E00E94900C81E595E0EF
S11327B00E94900CFF24F3941C5F809150078117B2
S11327C008F087CFA8C0833309F0A4C08DE092E05D
S11327D00E94900C8DE092E00E94900C8CE895E0B1
S11327E00E94900C10E00EC05F9BFECFE12EF12CF6
S11327F00E94A30CE1E0F0E0EC0FFD1FEE0DFF1DC5
S113280080831F5F143080F304E0F12C7DC0A98025
S1132810B12CC02ED12CB6016F5F7F4F85E090E0C4
S11328200E943A02A816B90609F06DC0AA80B12C1C
S1132830B6016E5F7F4F85E090E00E943A02A816D1
S1132840B90609F060C0AB80B12CB6016D5F7F4F53
S113285085E090E00E943A02A816B90609F053C038
S1132860AC80B12CB6016C5F7F4F85E090E00E9494
S11328703A02A816B90609F046C011E0100F1DC0AF
S1132880E12EF12C670184E0C80ED11CB60185E06D
S113289090E00E943A02AC01B70185E090E00E940A
S11328A01902B60186E090E00E943A02AC01B70139
S11328B086E090E00E9419021F5F809170008117EA
S11328C0F8F69CEF980F90937000011102C080936A
S11328D070004091700050E062E070E084E090E0AD
S11328E00E941902009170000F5F8DE092E00E9437
S11328F0900C8DE092E00E94900C81E595E00E949E
S1132900900CFF24F3940C5F80917000801708F002
S11329107ECF01C0F12CF1102CC08DE092E00E941A
S1132920900C8DE092E00E94900C8BEA95E00E945E
S1132930900C1FC0803379F4109254078DE092E01C
S11329400E94900C8DE092E00E94900C8FEB95E039
S11329500E94900C0EC0883061F08DE092E00E94DD
S1132960900C8DE092E00E94900C88E792E00E9427
S1132970900C80912F07882381F08091550789332B
S113298061F410922F070E94A0098DE092E00E944A
S1132990900C8EEC95E00E94900C80915407882353
S11329A009F441C08DE092E00E94900C87EE95E01E
S11329B00E94900C8DE092E00E94900C82E096E0E0
S11329C00E94900C84E196E00E94900C87E296E0CD
S11329D00E94900C86E396E00E94900C86E496E0B8
S11329E00E94900C87E596E00E94900C83E796E0A5
S11329F00E94900C84E896E00E94900C80912F072E
S1132A00882321F08AE996E00E94900C8FEA96E0F0
S1132A100E94900C8AEB96E00E94900C8DE092E06C
S1132A200E94900CC9C28DE092E00E94900C8DE04F
S1132A3092E00E94900C86E992E00E94900C86EA53
S1132A4092E00E94900C8DE092E00E94900CB4C23F
S1132A50823009F0B1C28CB180935507809152073E
S1132A60882329F088E080935507109252078091BB
S1132A705507813309F08EC08DE092E00E94900CDE
S1132A808DE092E00E94900C8FEC92E00E94900CFA
S1132A9082E093E00E94900C8DE092E00E94900C02
S1132AA05F9BFECF0E94A30C80935507813369F48A
S1132AB00E94C20980912F07811161C00E94A00960
S1132AC080E193E00E941A095AC0823369F40E949B
S1132AD0D30980912F07811152C00E94A0098FE170
S1132AE093E00E941A094BC0833369F40E94E409FD
S1132AF080912F07811143C00E94A0098EE293E0C8
S1132B000E941A093CC0843369F40E94F50980913B
S1132B102F07811134C00E94A0098DE393E00E9425
S1132B201A092DC0853369F40E94060A80912F0783
S1132B30811125C00E94A0098CE493E00E941A0927
S1132B401EC08633E1F40E94C2090E94D3090E9488
S1132B50E4090E94F5090E94060A80912F07811159
S1132B600EC00E94A0098BE593E00E941A0960E060
S1132B7081E00E94A40988E193E00E941A098091EF
S1132B802F078111DCC160ED77E080E090E00E94C6
S1132B90C80BD5C1823309F08EC08DE092E00E944B
S1132BA0900C8DE092E00E94900C89E693E00E94E4
S1132BB0900C82E093E00E94900C8DE092E00E94E1
S1132BC0900C5F9BFECF0E94A30C8093550781332A
S1132BD069F40E94C80980912F07811161C00E9485
S1132BE0A0098CE993E00E941A095AC0823369F45F
S1132BF00E94D90980912F07811152C00E94A00917
S1132C008BEA93E00E941A094BC0833369F40E9453
S1132C10EA0980912F07811143C00E94A0098AEB21
S1132C2093E00E941A093CC0843369F40E94FB09B2
S1132C3080912F07811134C00E94A00989EC93E090
S1132C400E941A092DC0853369F40E940C0A8091F0
S1132C502F07811125C00E94A00988ED93E00E94EE
S1132C601A091EC08633E1F40E94C8090E94D909DA
S1132C700E94EA090E94FB090E940C0A0E94A00912
S1132C8080912F0781110CC08BE593E00E941A09F3
S1132C9060E081E00E94A40984EA93E00E941A099A
S1132CA080912F0781114BC160ED77E080E090E0C7
S1132CB00E94C80B44C1833309F0CFC08DE092E079
S1132CC00E94900C8DE092E00E94900C87EE93E0BD
S1132CD00E94900C8DE092E00E94900C10924907A3
S1132CE010924A0710924B0710924C0700E038C02C
S1132CF05F9BFECFE02EF12C0E94A30C182FF7014E
S1132D00E35BF84F808380ED810F8A3038F520E053
S1132D1030E040E251E46091490770914A078091A4
S1132D204B0790914C070E94D7196B017C01612FCE
S1132D3070E060537109072E000C880B990B0E94F8
S1132D402219A70196010E940E18609349077093F7
S1132D504A0780934B0790934C0701C005E00F5F2F
S1132D60033030F280912F07811123C00E94A00903
S1132D7081E194E00E941A0960E081E00E94A409C4
S1132D808AE194E00E941A096091490770914A0708
S1132D9080914B0790914C070E94F1180E942D09D5
S1132DA085E20E94D90860ED77E080E090E00E941F
S1132DB0C80BC0904907D0904A07E0904B07F090A9
S1132DC04C0720E030E048E652E4C701B6010E9417
S1132DD0D2198823BCF020E030E040E752E4C70178
S1132DE0B6010E947A1818166CF080E090E0ACE509
S1132DF0B2E48093490790934A07A0934B07B0939A
S1132E004C0720C020E030E040E752E4C701B6019F
S1132E100E94D2191816B4F420E030E048E752E4D6
S1132E20C701B6010E947A18181664F080E090E099
S1132E30A2E8B2E48093490790934A07A0934B0712
S1132E40B0934C076091490770914A0780914B07F2
S1132E5090914C070E94DF0A72C0843309F050C07D
S1132E601A8619869091310720E017C0E9E0F0E056
S1132E70EC0FFD1FE20FF11D8DEC989F812D1124A5
S1132E80869586958695482F440F342F330F330F3C
S1132E90340F931B9083982F2F5F223038F38DE0EB
S1132EA092E00E94900C8DE092E00E94900C86E2E9
S1132EB094E00E94900C8A85805D0E948C0C898528
S1132EC0805D0E948C0C8DE092E00E94900C8091B9
S1132ED02F07811134C00E94A00985E394E00E9469
S1132EE01A09609131077091320780E090E00E94E6
S1132EF02D0960ED77E080E090E00E94C80B1FC0D0
S1132F00803379F4109254078DE092E00E94900C83
S1132F108DE092E00E94900C8FEB95E00E94900C63
S1132F200EC0883061F08DE092E00E94900C8DE03C
S1132F3092E00E94900C88E792E00E94900C8091AD
S1132F405407882369F18DE092E00E94900C8DE093
S1132F5092E00E94900C87EE95E00E94900C8DE028
S1132F6092E00E94900C81EE96E00E94900C80EF1B
S1132F7096E00E94900C80E097E00E94900C81E122
S1132F8097E00E94900C8FEA96E00E94900C8AEBE6
S1132F9096E00E94900C8DE092E00E94900C0CC090
S1132FA086E992E00E94900C86EA92E00E94900CDE
S1132FB08DE092E00E94900C2A960FB6F894DEBF42
S1132FC00FBECDBFDF91CF91FF91EF91BF91AF9134
S1132FD09F918F917F916F915F914F913F912F912D
S1132FE01F910F91FF90EF90DF90CF90BF90AF9023
S1132FF09F908F907F906F905F904F900F900FBE37
S11330000F901F9018951F920F920FB60F921124D4
S11330100F900FBE0F901F9018955058BB27AA27EA
S11330200E9425180C9498190E948A1938F00E945D
S1133030911920F039F49F3F19F426F40C94871960
S11330400EF4E095E7FB0C948119E92F0E94A9196D
S113305058F3BA17620773078407950720F079F4C9
S1133060A6F50C94CB190EF4E0950B2EBA2FA02DD7
S11330700B01B90190010C01CA01A0011124FF2721
S1133080591B99F0593F50F4503E68F11A16F0401C
S1133090A22F232F342F4427585FF3CF469537951B
S11330A02795A795F0405395C9F77EF41F16BA0BE0
S11330B0620B730B840BBAF09150A1F0FF0FBB1F8E
S11330C0661F771F881FC2F70EC0BA0F621F731FD7
S11330D0841F48F4879577956795B795F7959E3F34
S11330E008F0B0CF9395880F08F09927EE0F9795C5
S11330F0879508950E945D1908F481E008950E945F
S113310093180C9498190E94911958F00E948A19E6
S113311040F029F45F3F29F00C94811951110C946B
S1133120CC190C9487190E94A91968F39923B1F357
S1133130552391F3951B550BBB27AA2762177307D9
S1133140840738F09F5F5F4F220F331F441FAA1F6D
S1133150A9F335D00E2E3AF0E0E832D09150504029
S1133160E695001CCAF72BD0FE2F29D0660F771FD7
S1133170881FBB1F261737074807AB07B0E809F0BD
S1133180BB0B802DBF01FF2793585F4F3AF09E3F42
S1133190510578F00C9481190C94CC195F3FE4F339
S11331A0983ED4F3869577956795B795F7959F5F85
S11331B0C9F7880F911D9695879597F90895E1E0D1
S11331C0660F771F881FBB1F621773078407BA0730
S11331D020F0621B730B840BBA0BEE1F88F7E0958B
S11331E008950E94B11988F09F5798F0B92F992734
S11331F0B751B0F0E1F0660F771F881F991F1AF0DE
S1133200BA95C9F714C0B13091F00E94CB19B1E05E
S113321008950C94CB19672F782F8827B85F39F05D
S1133220B93FCCF3869577956795B395D9F73EF476
S113323090958095709561957F4F8F4F9F4F08951E
S1133240E89409C097FB3EF490958095709561953C
S11332507F4F8F4F9F4F9923A9F0F92F96E9BB27F2
S11332609395F695879577956795B795F111F8CF6E
S1133270FAF4BB0F11F460FF1BC06F5F7F4F8F4FD9
S11332809F4F16C0882311F096E911C0772321F0CF
S11332909EE8872F762F05C0662371F096E8862F67
S11332A070E060E02AF09A95660F771F881FDAF7BE
S11332B0880F9695879597F90895990F0008550FEB
S11332C0AA0BE0E8FEEF16161706E807F907C0F0A8
S11332D012161306E407F50798F0621B730B840BB0
S11332E0950B39F40A2661F0232B242B252B21F48A
S11332F008950A2609F4A140A6958FEF811D811D2A
S1133300089597F99F6780E870E060E008959FEF63
S113331080EC089500240A94161617061806090668
S1133320089500240A941216130614060506089537
S1133330092E0394000C11F4882352F0BB0F40F4BF
S1133340BF2B11F460FF04C06F5F7F4F8F4F9F4FFF
S1133350089557FD9058440F551F59F05F3F71F081
S11333604795880F97FB991F61F09F3F79F08795E8
S11333700895121613061406551FF2CF4695F1DF71
S113338008C0161617061806991FF1CF8695710501
S1133390610508940895E894BB2766277727CB0135
S11333A097F908950E945D1908F48FEF08950E941B
S11333B0EA190C9498190E948A1938F00E949119FC
S11333C020F0952311F00C9481190C948719112481
S11333D00C94CC190E94A91970F3959FC1F3950F11
S11333E050E0551F629FF001729FBB27F00DB11D85
S11333F0639FAA27F00DB11DAA1F649F6627B00D15
S1133400A11D661F829F2227B00DA11D621F739FFD
S1133410B00DA11D621F839FA00D611D221F749F0B
S11334203327A00D611D231F849F600D211D822F52
S1133430762F6A2F11249F5750409AF0F1F0882379
S11334404AF0EE0FFF1FBB1F661F771F881F9150A6
S11334505040A9F79E3F510580F00C9481190C94BB
S1133460CC195F3FE4F3983ED4F38695779567953E
S1133470B795F795E7959F5FC1F7FE2B880F911DD0
S11334809695879597F9089597FB072E16F400945F
S113349007D077FD09D00E947A1A07FC05D03EF4C4
S11334A0909581959F4F0895709561957F4F0895EC
S11334B0A1E21A2EAA1BBB1BFD010DC0AA1FBB1F34
S11334C0EE1FFF1FA217B307E407F50720F0A21BA6
S11334D0B30BE40BF50B661F771F881F991F1A9413
S11334E069F760957095809590959B01AC01BD013D
S11334F0CF010895AA1BBB1B51E107C0AA1FBB1F24
S1133500A617B70710F0A61BB70B881F991F5A956B
S1133510A9F780959095BC01CD010895F894FFCF4B
S11335203132330034353600373839002A3023003D
S1133530045468652073797374656D20697320621F
S1133540757379210D0A0075736572206E616D655E
S11335503A0070617373776F72643A0053686F77DF
S11335602070617373776F7264202A006F746865CA
S11335707220707265737320230055736572207610
S1133580657269666965640057656C636F6D652172
S11335900041736B696E672041646D696E00312E62
S11335A0416363657074207573657220726571750B
S11335B065737420746F20636F6E74726F6C207403
S11335C068652073797374656D0D0A00322E526537
S11335D06A656374207573657220726571756573AD
S11335E07420746F20636F6E74726F6C20746865DE
S11335F02073797374656D0D0A0041646D696E20E2
S113360044656E69656400557365722F5061737308
S11336102057726F6E670054727920616761696E1A
S113362000466972696E6720416C61726D210053B6
S1133630797374656D206F6E6C696E65210D0A0077
S1133640507265737320616E79206B657920746F95
S113365020636F6E74726F6C207468652073797365
S113366074656D0D0A0054656D70204973203A200D
S11336700046414E2020004F4646004F4E00506CFD
S11336806561736520656E74657220796F7572204B
S1133690757365726E616D650D0A00506C656173BA
S11336A06520656E74657220796F75722070617320
S11336B073776F72640D0A0041646D696E206578DA
S11336C06973742C2057656C636F6D65210D0A0056
S11336D041646D696E20646F6573206E6F7420653C
S11336E0786973742E20506C6561736520747279E7
S11336F020616761696E0D0A0055736572206578F3
S11337006973742C2057656C636F6D65210D0A0015
S11337105573657220646F6573206E6F74206578CD
S11337206973742E20506C656173652074727920FE
S1133730616761696E0D0A00506C6561736520658F
S11337406E74657220636F6D6D616E64206E756D4D
S11337506265720D0A00312E456E746572204164F3
S11337606D696E0D0A00322E456E746572205573B4
S113377065720D0A00446F6F72204F70656E656448
S11337802100446F6F7220436C6F7365642100578E
S113379068696368206C616D7020646F20796F754F
S11337A02077616E7420746F206265206F70656E7F
S11337B065642846726F6D203120746F2035290DA1
S11337C00A00362E416C6C204C616D70730D0A003A
S11337D04C616D70283129204F70656E6564004C12
S11337E0616D70283229204F70656E6564004C61EC
S11337F06D70283329204F70656E6564004C616DCF
S113380070283429204F70656E6564004C616D70BA
S1133810283529204F70656E656400416C6C204C1E
S1133820616D707320417265005768696368206C2C
S1133830616D7020646F20796F752077616E7420DC
S1133840746F20626520436C6F7365642846726FE1
S11338506D203120746F2035290D0A004C616D7084
S113386028312920436C6F736564004C616D7028A6
S1133870322920436C6F736564004C616D7028338A
S11338802920436C6F736564004C616D7028342982
S113389020436C6F736564004C616D70283529207A
S11338A0436C6F73656400506C6561736520656E6D
S11338B0746572207468652070657263656E7461E6
S11338C06765206F6620746865206C616D700D0AF1
S11338D0004C616D70204F4E210050657263656E1F
S11338E0746167653A0054656D70657261747572D0
S11338F0653A0D0A0054656D706572617475726580
S11339003A00312E4B657970616420757365720DD0
S11339100A00322E504320757365720D0A00332E4F
S1133920414420757365720D0A00506C65617365BE
S113393020656E7465722034206E756D62657273D5
S113394020617320757365726E616D650D0A005098
S11339506C6561736520656E7465722034206E75C4
S11339606D626572732061732070617373776F7217
S1133970640D0A0055736572206164646564207384
S113398075636365737366756C6C790D0A00446FB7
S113399020796F752077616E7420746F2064656C74
S11339A0657465206B657970616420757365722038
S11339B02C2050432075736572206F722041646D12
S11339C0696E20757365720D0A00312E4B6579702E
S11339D0616420557365720D0A00322E50432055E0
S11339E07365720D0A00332E414420557365720DC0
S11339F00A00506C6561736520656E74657220748D
S1133A006865204B5020757365726E616D650D0A93
S1133A1000557365722064656C6574656420737504
S1133A20636365737366756C6C790D0A00506C651D
S1133A3061736520656E74657220746865205043F7
S1133A4020757365726E616D650D0A00506C656159
S1133A50736520656E746572207468652041442026
S1133A60757365726E616D650D0A0055736572201C
S1133A706973206E6F742065786973740D0A00424F
S1133A8079652D42796520757365720D0A004B6561
S1133A90797061642075736572206B69636B65640A
S1133AA0206F75740D0A0057616974696E6720662A
S1133AB06F7220796F757220636F6D6D616E640D26
S1133AC00A00312E4F70656E2074686520646F6F34
S1133AD0720D0A00322E436C6F7365207468652082
S1133AE0646F6F720D0A00332E4F70656E206C6127
S1133AF06D70730D0A00342E436C6F7365206C6116
S1133B006D70730D0A00352E56617269616E7420F2
S1133B106C616D700D0A00362E446973706C6179A6
S1133B20207468652074656D706572617475726562
S1133B300D0A00372E416464206E65772075736525
S1133B40720D0A00382E44656C65746520657869C9
S1133B50737420757365720D0A00392E4669726597
S1133B60204B657970616420757365720D0A0030AD
S1133B702E4C6F676F75740D0A005265706C792056
S1133B807769746820746865206E756D626572204B
S1133B906F662074686520636F6D6D616E640D0AD5
S1133BA000312E4F70656E206C616D70730D0A00CC
S1133BB0322E436C6F7365206C616D70730D0A0057
S1133BC0332E56617269616E74206C616D700D0ADA
S1133BD000342E446973706C6179207468652074B4
S1113BE0656D70657261747572650D0A000082
S9030000FC
